{
  "contractName": "Tickets",
  "abi": [
    {
      "inputs": [
        {
          "internalType": "address",
          "name": "_verifier",
          "type": "address"
        }
      ],
      "stateMutability": "nonpayable",
      "type": "constructor"
    },
    {
      "inputs": [],
      "name": "admin",
      "outputs": [
        {
          "internalType": "address",
          "name": "",
          "type": "address"
        }
      ],
      "stateMutability": "view",
      "type": "function",
      "constant": true
    },
    {
      "inputs": [
        {
          "internalType": "string",
          "name": "",
          "type": "string"
        }
      ],
      "name": "events",
      "outputs": [
        {
          "internalType": "string",
          "name": "eventId",
          "type": "string"
        },
        {
          "internalType": "uint256",
          "name": "maxSeats",
          "type": "uint256"
        },
        {
          "internalType": "uint256",
          "name": "bookedSeats",
          "type": "uint256"
        },
        {
          "internalType": "uint256",
          "name": "price",
          "type": "uint256"
        }
      ],
      "stateMutability": "view",
      "type": "function",
      "constant": true
    },
    {
      "inputs": [],
      "name": "verifier",
      "outputs": [
        {
          "internalType": "address",
          "name": "",
          "type": "address"
        }
      ],
      "stateMutability": "view",
      "type": "function",
      "constant": true
    },
    {
      "inputs": [
        {
          "internalType": "string",
          "name": "_eventId",
          "type": "string"
        },
        {
          "internalType": "uint256",
          "name": "_maxSeats",
          "type": "uint256"
        },
        {
          "internalType": "uint256",
          "name": "_price",
          "type": "uint256"
        }
      ],
      "name": "createEvent",
      "outputs": [],
      "stateMutability": "nonpayable",
      "type": "function"
    },
    {
      "inputs": [
        {
          "internalType": "string",
          "name": "_eventId",
          "type": "string"
        }
      ],
      "name": "getAvailableSeats",
      "outputs": [
        {
          "internalType": "uint256",
          "name": "",
          "type": "uint256"
        }
      ],
      "stateMutability": "view",
      "type": "function",
      "constant": true
    },
    {
      "inputs": [
        {
          "internalType": "string",
          "name": "_eventId",
          "type": "string"
        }
      ],
      "name": "getEventPrice",
      "outputs": [
        {
          "internalType": "uint256",
          "name": "",
          "type": "uint256"
        }
      ],
      "stateMutability": "view",
      "type": "function",
      "constant": true
    },
    {
      "inputs": [
        {
          "internalType": "string",
          "name": "tempTicketId",
          "type": "string"
        }
      ],
      "name": "getTicketLocked",
      "outputs": [
        {
          "components": [
            {
              "internalType": "string",
              "name": "ticketId",
              "type": "string"
            },
            {
              "internalType": "string",
              "name": "ticketIdentifier",
              "type": "string"
            },
            {
              "internalType": "address",
              "name": "owner",
              "type": "address"
            },
            {
              "internalType": "string",
              "name": "eventId",
              "type": "string"
            },
            {
              "internalType": "string",
              "name": "ticketLevel",
              "type": "string"
            },
            {
              "internalType": "bool",
              "name": "isScanned",
              "type": "bool"
            },
            {
              "internalType": "uint256",
              "name": "resellPrice",
              "type": "uint256"
            },
            {
              "internalType": "uint256",
              "name": "dateCreated",
              "type": "uint256"
            },
            {
              "internalType": "uint256",
              "name": "dateModified",
              "type": "uint256"
            }
          ],
          "internalType": "struct Tickets.TicketLocked",
          "name": "",
          "type": "tuple"
        }
      ],
      "stateMutability": "view",
      "type": "function",
      "constant": true
    },
    {
      "inputs": [
        {
          "internalType": "string",
          "name": "_ticketId",
          "type": "string"
        },
        {
          "internalType": "string",
          "name": "_ticketIdentifier",
          "type": "string"
        },
        {
          "internalType": "string",
          "name": "_eventId",
          "type": "string"
        },
        {
          "internalType": "string",
          "name": "_ticketLevel",
          "type": "string"
        }
      ],
      "name": "createTicketLocked",
      "outputs": [],
      "stateMutability": "payable",
      "type": "function",
      "payable": true
    },
    {
      "inputs": [
        {
          "internalType": "string",
          "name": "tempTicketID",
          "type": "string"
        }
      ],
      "name": "scanTicketLocked",
      "outputs": [],
      "stateMutability": "nonpayable",
      "type": "function"
    }
  ],
  "bytecode": "0x60806040523480156200001157600080fd5b5060405162001c1438038062001c148339818101604052810190620000379190620000d6565b336000806101000a81548173ffffffffffffffffffffffffffffffffffffffff021916908373ffffffffffffffffffffffffffffffffffffffff16021790555080600160006101000a81548173ffffffffffffffffffffffffffffffffffffffff021916908373ffffffffffffffffffffffffffffffffffffffff1602179055505062000150565b600081519050620000d08162000136565b92915050565b600060208284031215620000e957600080fd5b6000620000f984828501620000bf565b91505092915050565b60006200010f8262000116565b9050919050565b600073ffffffffffffffffffffffffffffffffffffffff82169050919050565b620001418162000102565b81146200014d57600080fd5b50565b611ab480620001606000396000f3fe6080604052600436106100865760003560e01c806356ac5b861161005957806356ac5b86146101385780639673d6a3146101755780639e9580f6146101b5578063b8724bfa146101de578063f851a4401461021b57610086565b80630719440f1461008b578063280b9104146100b45780632b7ac3f3146100f1578063493b53751461011c575b600080fd5b34801561009757600080fd5b506100b260048036038101906100ad91906110a9565b610246565b005b3480156100c057600080fd5b506100db60048036038101906100d691906110a9565b6104af565b6040516100e891906117dc565b60405180910390f35b3480156100fd57600080fd5b506101066104da565b6040516101139190611633565b60405180910390f35b610136600480360381019061013191906110ea565b610500565b005b34801561014457600080fd5b5061015f600480360381019061015a91906110a9565b610957565b60405161016c91906117dc565b60405180910390f35b34801561018157600080fd5b5061019c600480360381019061019791906110a9565b6109ae565b6040516101ac949392919061164e565b60405180910390f35b3480156101c157600080fd5b506101dc60048036038101906101d791906111ad565b610a7c565b005b3480156101ea57600080fd5b50610205600480360381019061020091906110a9565b610bf1565b60405161021291906117ba565b60405180910390f35b34801561022757600080fd5b50610230610f01565b60405161023d9190611633565b60405180910390f35b600160009054906101000a900473ffffffffffffffffffffffffffffffffffffffff1673ffffffffffffffffffffffffffffffffffffffff163373ffffffffffffffffffffffffffffffffffffffff1614806102ed575060008054906101000a900473ffffffffffffffffffffffffffffffffffffffff1673ffffffffffffffffffffffffffffffffffffffff163373ffffffffffffffffffffffffffffffffffffffff16145b61032c576040517f08c379a00000000000000000000000000000000000000000000000000000000081526004016103239061171a565b60405180910390fd5b600073ffffffffffffffffffffffffffffffffffffffff16600282604051610354919061161c565b908152602001604051809103902060020160009054906101000a900473ffffffffffffffffffffffffffffffffffffffff1673ffffffffffffffffffffffffffffffffffffffff1614156103dd576040517f08c379a00000000000000000000000000000000000000000000000000000000081526004016103d49061179a565b60405180910390fd5b6002816040516103ed919061161c565b908152602001604051809103902060050160009054906101000a900460ff161561044c576040517f08c379a00000000000000000000000000000000000000000000000000000000081526004016104439061177a565b60405180910390fd5b600160028260405161045e919061161c565b908152602001604051809103902060050160006101000a81548160ff02191690831515021790555042600282604051610497919061161c565b90815260200160405180910390206008018190555050565b60006003826040516104c1919061161c565b9081526020016040518091039020600301549050919050565b600160009054906101000a900473ffffffffffffffffffffffffffffffffffffffff1681565b6000600383604051610512919061161c565b90815260200160405180910390206001015411610564576040517f08c379a000000000000000000000000000000000000000000000000000000000815260040161055b9061173a565b60405180910390fd5b600382604051610574919061161c565b908152602001604051809103902060010154600383604051610596919061161c565b908152602001604051809103902060020154106105e8576040517f08c379a00000000000000000000000000000000000000000000000000000000081526004016105df906116da565b60405180910390fd5b600073ffffffffffffffffffffffffffffffffffffffff16600285604051610610919061161c565b908152602001604051809103902060020160009054906101000a900473ffffffffffffffffffffffffffffffffffffffff1673ffffffffffffffffffffffffffffffffffffffff1614610698576040517f08c379a000000000000000000000000000000000000000000000000000000000815260040161068f9061175a565b60405180910390fd5b60006003836040516106aa919061161c565b908152602001604051809103902060030154905080341015610701576040517f08c379a00000000000000000000000000000000000000000000000000000000081526004016106f8906116fa565b60405180910390fd5b6040518061012001604052808681526020018581526020013373ffffffffffffffffffffffffffffffffffffffff168152602001848152602001838152602001600015158152602001600081526020014281526020014281525060028660405161076b919061161c565b90815260200160405180910390206000820151816000019080519060200190610795929190610f25565b5060208201518160010190805190602001906107b2929190610f25565b5060408201518160020160006101000a81548173ffffffffffffffffffffffffffffffffffffffff021916908373ffffffffffffffffffffffffffffffffffffffff1602179055506060820151816003019080519060200190610816929190610f25565b506080820151816004019080519060200190610833929190610f25565b5060a08201518160050160006101000a81548160ff02191690831515021790555060c0820151816006015560e0820151816007015561010082015181600801559050506004859080600181540180825580915050600190039060005260206000200160009091909190915090805190602001906108b1929190610f25565b506003836040516108c2919061161c565b908152602001604051809103902060020160008154809291906108e490611980565b919050555060008054906101000a900473ffffffffffffffffffffffffffffffffffffffff1673ffffffffffffffffffffffffffffffffffffffff166108fc349081150290604051600060405180830381858888f1935050505015801561094f573d6000803e3d6000fd5b505050505050565b6000600382604051610969919061161c565b90815260200160405180910390206002015460038360405161098b919061161c565b9081526020016040518091039020600101546109a79190611890565b9050919050565b6003818051602081018201805184825260208301602085012081835280955050505050506000915090508060000180546109e79061194e565b80601f0160208091040260200160405190810160405280929190818152602001828054610a139061194e565b8015610a605780601f10610a3557610100808354040283529160200191610a60565b820191906000526020600020905b815481529060010190602001808311610a4357829003601f168201915b5050505050908060010154908060020154908060030154905084565b60008054906101000a900473ffffffffffffffffffffffffffffffffffffffff1673ffffffffffffffffffffffffffffffffffffffff163373ffffffffffffffffffffffffffffffffffffffff1614610b0a576040517f08c379a0000000000000000000000000000000000000000000000000000000008152600401610b01906116ba565b60405180910390fd5b6000600384604051610b1c919061161c565b90815260200160405180910390206001015414610b6e576040517f08c379a0000000000000000000000000000000000000000000000000000000008152600401610b659061169a565b60405180910390fd5b60405180608001604052808481526020018381526020016000815260200182815250600384604051610ba0919061161c565b90815260200160405180910390206000820151816000019080519060200190610bca929190610f25565b50602082015181600101556040820151816002015560608201518160030155905050505050565b610bf9610fab565b600282604051610c09919061161c565b908152602001604051809103902060405180610120016040529081600082018054610c339061194e565b80601f0160208091040260200160405190810160405280929190818152602001828054610c5f9061194e565b8015610cac5780601f10610c8157610100808354040283529160200191610cac565b820191906000526020600020905b815481529060010190602001808311610c8f57829003601f168201915b50505050508152602001600182018054610cc59061194e565b80601f0160208091040260200160405190810160405280929190818152602001828054610cf19061194e565b8015610d3e5780601f10610d1357610100808354040283529160200191610d3e565b820191906000526020600020905b815481529060010190602001808311610d2157829003601f168201915b505050505081526020016002820160009054906101000a900473ffffffffffffffffffffffffffffffffffffffff1673ffffffffffffffffffffffffffffffffffffffff1673ffffffffffffffffffffffffffffffffffffffff168152602001600382018054610dad9061194e565b80601f0160208091040260200160405190810160405280929190818152602001828054610dd99061194e565b8015610e265780601f10610dfb57610100808354040283529160200191610e26565b820191906000526020600020905b815481529060010190602001808311610e0957829003601f168201915b50505050508152602001600482018054610e3f9061194e565b80601f0160208091040260200160405190810160405280929190818152602001828054610e6b9061194e565b8015610eb85780601f10610e8d57610100808354040283529160200191610eb8565b820191906000526020600020905b815481529060010190602001808311610e9b57829003601f168201915b505050505081526020016005820160009054906101000a900460ff1615151515815260200160068201548152602001600782015481526020016008820154815250509050919050565b60008054906101000a900473ffffffffffffffffffffffffffffffffffffffff1681565b828054610f319061194e565b90600052602060002090601f016020900481019282610f535760008555610f9a565b82601f10610f6c57805160ff1916838001178555610f9a565b82800160010185558215610f9a579182015b82811115610f99578251825591602001919060010190610f7e565b5b509050610fa7919061100f565b5090565b6040518061012001604052806060815260200160608152602001600073ffffffffffffffffffffffffffffffffffffffff16815260200160608152602001606081526020016000151581526020016000815260200160008152602001600081525090565b5b80821115611028576000816000905550600101611010565b5090565b600061103f61103a84611828565b6117f7565b90508281526020810184848401111561105757600080fd5b61106284828561190c565b509392505050565b600082601f83011261107b57600080fd5b813561108b84826020860161102c565b91505092915050565b6000813590506110a381611a67565b92915050565b6000602082840312156110bb57600080fd5b600082013567ffffffffffffffff8111156110d557600080fd5b6110e18482850161106a565b91505092915050565b6000806000806080858703121561110057600080fd5b600085013567ffffffffffffffff81111561111a57600080fd5b6111268782880161106a565b945050602085013567ffffffffffffffff81111561114357600080fd5b61114f8782880161106a565b935050604085013567ffffffffffffffff81111561116c57600080fd5b6111788782880161106a565b925050606085013567ffffffffffffffff81111561119557600080fd5b6111a18782880161106a565b91505092959194509250565b6000806000606084860312156111c257600080fd5b600084013567ffffffffffffffff8111156111dc57600080fd5b6111e88682870161106a565b93505060206111f986828701611094565b925050604061120a86828701611094565b9150509250925092565b61121d816118c4565b82525050565b61122c816118c4565b82525050565b61123b816118d6565b82525050565b600061124c82611858565b6112568185611863565b935061126681856020860161191b565b61126f81611a56565b840191505092915050565b600061128582611858565b61128f8185611874565b935061129f81856020860161191b565b6112a881611a56565b840191505092915050565b60006112be82611858565b6112c88185611885565b93506112d881856020860161191b565b80840191505092915050565b60006112f1600c83611874565b91507f4576656e742065786973747300000000000000000000000000000000000000006000830152602082019050919050565b6000611331601283611874565b91507f4f6e6c792061646d696e20616c6c6f77656400000000000000000000000000006000830152602082019050919050565b6000611371600a83611874565b91507f53656174732046756c6c000000000000000000000000000000000000000000006000830152602082019050919050565b60006113b1600e83611874565b91507f4e6f7420656e6f756768204554480000000000000000000000000000000000006000830152602082019050919050565b60006113f1600b83611874565b91507f4e6f7420616c6c6f7765640000000000000000000000000000000000000000006000830152602082019050919050565b6000611431600f83611874565b91507f4576656e74206e6f7420657869737400000000000000000000000000000000006000830152602082019050919050565b6000611471600d83611874565b91507f5469636b657420657869737473000000000000000000000000000000000000006000830152602082019050919050565b60006114b1600f83611874565b91507f416c7265616479207363616e6e656400000000000000000000000000000000006000830152602082019050919050565b60006114f1601083611874565b91507f5469636b6574206e6f74206578697374000000000000000000000000000000006000830152602082019050919050565b60006101208301600083015184820360008601526115428282611241565b9150506020830151848203602086015261155c8282611241565b91505060408301516115716040860182611214565b50606083015184820360608601526115898282611241565b915050608083015184820360808601526115a38282611241565b91505060a08301516115b860a0860182611232565b5060c08301516115cb60c08601826115fe565b5060e08301516115de60e08601826115fe565b506101008301516115f36101008601826115fe565b508091505092915050565b61160781611902565b82525050565b61161681611902565b82525050565b600061162882846112b3565b915081905092915050565b60006020820190506116486000830184611223565b92915050565b60006080820190508181036000830152611668818761127a565b9050611677602083018661160d565b611684604083018561160d565b611691606083018461160d565b95945050505050565b600060208201905081810360008301526116b3816112e4565b9050919050565b600060208201905081810360008301526116d381611324565b9050919050565b600060208201905081810360008301526116f381611364565b9050919050565b60006020820190508181036000830152611713816113a4565b9050919050565b60006020820190508181036000830152611733816113e4565b9050919050565b6000602082019050818103600083015261175381611424565b9050919050565b6000602082019050818103600083015261177381611464565b9050919050565b60006020820190508181036000830152611793816114a4565b9050919050565b600060208201905081810360008301526117b3816114e4565b9050919050565b600060208201905081810360008301526117d48184611524565b905092915050565b60006020820190506117f1600083018461160d565b92915050565b6000604051905081810181811067ffffffffffffffff8211171561181e5761181d611a27565b5b8060405250919050565b600067ffffffffffffffff82111561184357611842611a27565b5b601f19601f8301169050602081019050919050565b600081519050919050565b600082825260208201905092915050565b600082825260208201905092915050565b600081905092915050565b600061189b82611902565b91506118a683611902565b9250828210156118b9576118b86119c9565b5b828203905092915050565b60006118cf826118e2565b9050919050565b60008115159050919050565b600073ffffffffffffffffffffffffffffffffffffffff82169050919050565b6000819050919050565b82818337600083830152505050565b60005b8381101561193957808201518184015260208101905061191e565b83811115611948576000848401525b50505050565b6000600282049050600182168061196657607f821691505b6020821081141561197a576119796119f8565b5b50919050565b600061198b82611902565b91507fffffffffffffffffffffffffffffffffffffffffffffffffffffffffffffffff8214156119be576119bd6119c9565b5b600182019050919050565b7f4e487b7100000000000000000000000000000000000000000000000000000000600052601160045260246000fd5b7f4e487b7100000000000000000000000000000000000000000000000000000000600052602260045260246000fd5b7f4e487b7100000000000000000000000000000000000000000000000000000000600052604160045260246000fd5b6000601f19601f8301169050919050565b611a7081611902565b8114611a7b57600080fd5b5056fea2646970667358221220f65abe7593153b973599dddb96fbc35e6d2661f1ab8185d9694861ca85fc9e8b64736f6c63430008000033",
  "immutableReferences": {},
  "source": "// SPDX-License-Identifier: MIT\npragma solidity ^0.8.0;\n\ncontract Tickets {\n\n    // 🔐 ROLES\n    address public admin;\n    address public verifier; // 👈 ADD THIS\n\n    constructor(address _verifier) {\n        admin = msg.sender;\n        verifier = _verifier;\n    }\n\n    modifier onlyAdmin() {\n        require(msg.sender == admin, \"Only admin allowed\");\n        _;\n    }\n\n    modifier onlyVerifierOrAdmin() {\n        require(\n            msg.sender == verifier || msg.sender == admin,\n            \"Not allowed\"\n        );\n        _;\n    }\n\n    // 🎟️ Ticket Structure\n    struct TicketLocked{\n        string ticketId;\n        string ticketIdentifier;\n        address owner;\n        string eventId;\n        string ticketLevel;\n        bool isScanned;\n        uint resellPrice;\n        uint256 dateCreated;\n        uint256 dateModified;\n    }\n\n    // 🎉 Event Structure\n    struct Event {\n        string eventId;\n        uint maxSeats;\n        uint bookedSeats;\n        uint price; // in wei\n    }\n\n    mapping (string => TicketLocked) private tickets;\n    mapping (string => Event) public events;\n\n    string[] private ticketAccounts;\n\n    // ================= EVENTS =================\n\n    function createEvent(\n        string memory _eventId,\n        uint _maxSeats,\n        uint _price\n    ) public onlyAdmin {\n\n        require(events[_eventId].maxSeats == 0, \"Event exists\");\n\n        events[_eventId] = Event(_eventId, _maxSeats, 0, _price);\n    }\n\n    function getAvailableSeats(string memory _eventId)\n    public view returns (uint) {\n        return events[_eventId].maxSeats - events[_eventId].bookedSeats;\n    }\n\n    function getEventPrice(string memory _eventId)\n    public view returns (uint) {\n        return events[_eventId].price;\n    }\n\n    // ================= TICKETS =================\n\n    function getTicketLocked(string memory tempTicketId)\n    public view returns(TicketLocked memory){ \n        return tickets[tempTicketId]; \n    }\n\n    // 🎟️ BOOK TICKET\n    function createTicketLocked(\n        string memory _ticketId,\n        string memory _ticketIdentifier,\n        string memory _eventId,\n        string memory _ticketLevel\n    ) public payable {\n\n        require(events[_eventId].maxSeats > 0, \"Event not exist\");\n\n        require(\n            events[_eventId].bookedSeats < events[_eventId].maxSeats,\n            \"Seats Full\"\n        );\n\n        require(tickets[_ticketId].owner == address(0), \"Ticket exists\");\n\n        uint price = events[_eventId].price;\n\n        require(msg.value >= price, \"Not enough ETH\");\n\n        tickets[_ticketId] = TicketLocked(\n            _ticketId,\n            _ticketIdentifier,\n            msg.sender,\n            _eventId,\n            _ticketLevel,\n            false,\n            0,\n            block.timestamp,\n            block.timestamp\n        );\n\n        ticketAccounts.push(_ticketId);\n        events[_eventId].bookedSeats++;\n\n        payable(admin).transfer(msg.value);\n    }\n\n    // ================= VERIFY =================\n\n    // ✅ ONLY ADMIN OR VERIFIER CAN VERIFY\n    function scanTicketLocked(string memory tempTicketID)\n    public onlyVerifierOrAdmin {\n\n        require(tickets[tempTicketID].owner != address(0), \"Ticket not exist\");\n        require(!tickets[tempTicketID].isScanned, \"Already scanned\");\n\n        tickets[tempTicketID].isScanned = true;\n        tickets[tempTicketID].dateModified = block.timestamp;\n    }\n\n}",
  "sourcePath": "C:\\Users\\ayush\\OneDrive\\Desktop\\Chandigarh University\\Blockchain-Based-Event-Ticketing-main\\Decentralized Ticketing\\contracts\\Ticket.sol",
  "compiler": {
    "name": "solc",
    "version": "0.8.0+commit.c7dfd78e.Emscripten.clang"
  },
  "schemaVersion": "3.4.16",
  "updatedAt": "2026-04-26T16:14:10.497Z",
  "networkType": "ethereum",
  "devdoc": {
    "kind": "dev",
    "methods": {},
    "version": 1
  },
  "userdoc": {
    "kind": "user",
    "methods": {},
    "version": 1
  }
}